{
  "_format": "hh-sol-artifact-1",
  "contractName": "FirmwareRegistry",
  "sourceName": "contracts/FirmwareRegistry.sol",
  "abi": [
    {
      "inputs": [],
      "stateMutability": "nonpayable",
      "type": "constructor"
    },
    {
      "anonymous": false,
      "inputs": [
        {
          "indexed": false,
          "internalType": "string",
          "name": "deviceModel",
          "type": "string"
        },
        {
          "indexed": false,
          "internalType": "string",
          "name": "version",
          "type": "string"
        },
        {
          "indexed": false,
          "internalType": "bytes32",
          "name": "firmwareHash",
          "type": "bytes32"
        },
        {
          "indexed": false,
          "internalType": "address",
          "name": "publisher",
          "type": "address"
        },
        {
          "indexed": false,
          "internalType": "uint256",
          "name": "timestamp",
          "type": "uint256"
        }
      ],
      "name": "FirmwarePublished",
      "type": "event"
    },
    {
      "anonymous": false,
      "inputs": [
        {
          "indexed": false,
          "internalType": "string",
          "name": "deviceModel",
          "type": "string"
        },
        {
          "indexed": false,
          "internalType": "string",
          "name": "version",
          "type": "string"
        },
        {
          "indexed": false,
          "internalType": "bool",
          "name": "isValid",
          "type": "bool"
        }
      ],
      "name": "FirmwareVerified",
      "type": "event"
    },
    {
      "inputs": [
        {
          "internalType": "string",
          "name": "",
          "type": "string"
        },
        {
          "internalType": "string",
          "name": "",
          "type": "string"
        }
      ],
      "name": "firmwareRecords",
      "outputs": [
        {
          "internalType": "string",
          "name": "deviceModel",
          "type": "string"
        },
        {
          "internalType": "string",
          "name": "version",
          "type": "string"
        },
        {
          "internalType": "bytes32",
          "name": "firmwareHash",
          "type": "bytes32"
        },
        {
          "internalType": "uint256",
          "name": "timestamp",
          "type": "uint256"
        },
        {
          "internalType": "address",
          "name": "publisher",
          "type": "address"
        },
        {
          "internalType": "bool",
          "name": "exists",
          "type": "bool"
        }
      ],
      "stateMutability": "view",
      "type": "function"
    },
    {
      "inputs": [
        {
          "internalType": "string",
          "name": "deviceModel",
          "type": "string"
        },
        {
          "internalType": "string",
          "name": "version",
          "type": "string"
        }
      ],
      "name": "getFirmwareRecord",
      "outputs": [
        {
          "internalType": "bytes32",
          "name": "firmwareHash",
          "type": "bytes32"
        },
        {
          "internalType": "uint256",
          "name": "timestamp",
          "type": "uint256"
        },
        {
          "internalType": "address",
          "name": "publisher",
          "type": "address"
        },
        {
          "internalType": "bool",
          "name": "exists",
          "type": "bool"
        }
      ],
      "stateMutability": "view",
      "type": "function"
    },
    {
      "inputs": [],
      "name": "owner",
      "outputs": [
        {
          "internalType": "address",
          "name": "",
          "type": "address"
        }
      ],
      "stateMutability": "view",
      "type": "function"
    },
    {
      "inputs": [
        {
          "internalType": "string",
          "name": "deviceModel",
          "type": "string"
        },
        {
          "internalType": "string",
          "name": "version",
          "type": "string"
        },
        {
          "internalType": "bytes32",
          "name": "firmwareHash",
          "type": "bytes32"
        }
      ],
      "name": "publishFirmware",
      "outputs": [],
      "stateMutability": "nonpayable",
      "type": "function"
    },
    {
      "inputs": [
        {
          "internalType": "address",
          "name": "newOwner",
          "type": "address"
        }
      ],
      "name": "transferOwnership",
      "outputs": [],
      "stateMutability": "nonpayable",
      "type": "function"
    },
    {
      "inputs": [
        {
          "internalType": "string",
          "name": "deviceModel",
          "type": "string"
        },
        {
          "internalType": "string",
          "name": "version",
          "type": "string"
        },
        {
          "internalType": "bytes32",
          "name": "providedHash",
          "type": "bytes32"
        }
      ],
      "name": "verifyFirmware",
      "outputs": [
        {
          "internalType": "bool",
          "name": "isValid",
          "type": "bool"
        }
      ],
      "stateMutability": "nonpayable",
      "type": "function"
    }
  ],
  "bytecode": "0x608060405234801561001057600080fd5b5033600160006101000a81548173ffffffffffffffffffffffffffffffffffffffff021916908373ffffffffffffffffffffffffffffffffffffffff160217905550611650806100616000396000f3fe608060405234801561001057600080fd5b50600436106100625760003560e01c80631c67f10f1461006757806345dca9a81461009757806375201c34146100ca5780638da5cb5b146100e6578063c2dd106d14610104578063f2fde38b14610139575b600080fd5b610081600480360381019061007c9190610cde565b610155565b60405161008e9190610d84565b60405180910390f35b6100b160048036038101906100ac9190610d9f565b6103d8565b6040516100c19493929190610e80565b60405180910390f35b6100e460048036038101906100df9190610cde565b6105f5565b005b6100ee610833565b6040516100fb9190610ec5565b60405180910390f35b61011e60048036038101906101199190610d9f565b610859565b60405161013096959493929190610f5f565b60405180910390f35b610153600480360381019061014e9190610ffa565b610a0b565b005b6000806000856040516101689190611063565b9081526020016040518091039020846040516101849190611063565b90815260200160405180910390206040518060c00160405290816000820180546101ad906110a9565b80601f01602080910402602001604051908101604052809291908181526020018280546101d9906110a9565b80156102265780601f106101fb57610100808354040283529160200191610226565b820191906000526020600020905b81548152906001019060200180831161020957829003601f168201915b5050505050815260200160018201805461023f906110a9565b80601f016020809104026020016040519081016040528092919081815260200182805461026b906110a9565b80156102b85780601f1061028d576101008083540402835291602001916102b8565b820191906000526020600020905b81548152906001019060200180831161029b57829003601f168201915b5050505050815260200160028201548152602001600382015481526020016004820160009054906101000a900473ffffffffffffffffffffffffffffffffffffffff1673ffffffffffffffffffffffffffffffffffffffff1673ffffffffffffffffffffffffffffffffffffffff1681526020016004820160149054906101000a900460ff16151515158152505090508060a0015161038c576040517f08c379a000000000000000000000000000000000000000000000000000000000815260040161038390611126565b60405180910390fd5b8281604001511491507f285bbb5fae0978c7e8009b204b41d2525ad4696b155cf25a16ec15a010f3c10b8585846040516103c893929190611146565b60405180910390a1509392505050565b600080600080600080876040516103ef9190611063565b90815260200160405180910390208660405161040b9190611063565b90815260200160405180910390206040518060c0016040529081600082018054610434906110a9565b80601f0160208091040260200160405190810160405280929190818152602001828054610460906110a9565b80156104ad5780601f10610482576101008083540402835291602001916104ad565b820191906000526020600020905b81548152906001019060200180831161049057829003601f168201915b505050505081526020016001820180546104c6906110a9565b80601f01602080910402602001604051908101604052809291908181526020018280546104f2906110a9565b801561053f5780601f106105145761010080835404028352916020019161053f565b820191906000526020600020905b81548152906001019060200180831161052257829003601f168201915b5050505050815260200160028201548152602001600382015481526020016004820160009054906101000a900473ffffffffffffffffffffffffffffffffffffffff1673ffffffffffffffffffffffffffffffffffffffff1673ffffffffffffffffffffffffffffffffffffffff1681526020016004820160149054906101000a900460ff16151515158152505090508060400151816060015182608001518360a0015194509450945094505092959194509250565b6000836040516106059190611063565b9081526020016040518091039020826040516106219190611063565b908152602001604051809103902060040160149054906101000a900460ff1615610680576040517f08c379a0000000000000000000000000000000000000000000000000000000008152600401610677906111d7565b60405180910390fd5b6000801b81036106c5576040517f08c379a00000000000000000000000000000000000000000000000000000000081526004016106bc90611243565b60405180910390fd5b6040518060c001604052808481526020018381526020018281526020014281526020013373ffffffffffffffffffffffffffffffffffffffff1681526020016001151581525060008460405161071b9190611063565b9081526020016040518091039020836040516107379190611063565b9081526020016040518091039020600082015181600001908161075a919061140f565b506020820151816001019081610770919061140f565b50604082015181600201556060820151816003015560808201518160040160006101000a81548173ffffffffffffffffffffffffffffffffffffffff021916908373ffffffffffffffffffffffffffffffffffffffff16021790555060a08201518160040160146101000a81548160ff0219169083151502179055509050507fa4757cd10901e652716a21447990d6c98cb03f0983119f1312801402478ad9df83838333426040516108269594939291906114e1565b60405180910390a1505050565b600160009054906101000a900473ffffffffffffffffffffffffffffffffffffffff1681565b60008280516020810182018051848252602083016020850120818352809550505050505081805160208101820180518482526020830160208501208183528095505050505050600091509150508060000180546108b5906110a9565b80601f01602080910402602001604051908101604052809291908181526020018280546108e1906110a9565b801561092e5780601f106109035761010080835404028352916020019161092e565b820191906000526020600020905b81548152906001019060200180831161091157829003601f168201915b505050505090806001018054610943906110a9565b80601f016020809104026020016040519081016040528092919081815260200182805461096f906110a9565b80156109bc5780601f10610991576101008083540402835291602001916109bc565b820191906000526020600020905b81548152906001019060200180831161099f57829003601f168201915b5050505050908060020154908060030154908060040160009054906101000a900473ffffffffffffffffffffffffffffffffffffffff16908060040160149054906101000a900460ff16905086565b600160009054906101000a900473ffffffffffffffffffffffffffffffffffffffff1673ffffffffffffffffffffffffffffffffffffffff163373ffffffffffffffffffffffffffffffffffffffff1614610a9b576040517f08c379a0000000000000000000000000000000000000000000000000000000008152600401610a929061158e565b60405180910390fd5b600073ffffffffffffffffffffffffffffffffffffffff168173ffffffffffffffffffffffffffffffffffffffff1603610b0a576040517f08c379a0000000000000000000000000000000000000000000000000000000008152600401610b01906115fa565b60405180910390fd5b80600160006101000a81548173ffffffffffffffffffffffffffffffffffffffff021916908373ffffffffffffffffffffffffffffffffffffffff16021790555050565b6000604051905090565b600080fd5b600080fd5b600080fd5b600080fd5b6000601f19601f8301169050919050565b7f4e487b7100000000000000000000000000000000000000000000000000000000600052604160045260246000fd5b610bb582610b6c565b810181811067ffffffffffffffff82111715610bd457610bd3610b7d565b5b80604052505050565b6000610be7610b4e565b9050610bf38282610bac565b919050565b600067ffffffffffffffff821115610c1357610c12610b7d565b5b610c1c82610b6c565b9050602081019050919050565b82818337600083830152505050565b6000610c4b610c4684610bf8565b610bdd565b905082815260208101848484011115610c6757610c66610b67565b5b610c72848285610c29565b509392505050565b600082601f830112610c8f57610c8e610b62565b5b8135610c9f848260208601610c38565b91505092915050565b6000819050919050565b610cbb81610ca8565b8114610cc657600080fd5b50565b600081359050610cd881610cb2565b92915050565b600080600060608486031215610cf757610cf6610b58565b5b600084013567ffffffffffffffff811115610d1557610d14610b5d565b5b610d2186828701610c7a565b935050602084013567ffffffffffffffff811115610d4257610d41610b5d565b5b610d4e86828701610c7a565b9250506040610d5f86828701610cc9565b9150509250925092565b60008115159050919050565b610d7e81610d69565b82525050565b6000602082019050610d996000830184610d75565b92915050565b60008060408385031215610db657610db5610b58565b5b600083013567ffffffffffffffff811115610dd457610dd3610b5d565b5b610de085828601610c7a565b925050602083013567ffffffffffffffff811115610e0157610e00610b5d565b5b610e0d85828601610c7a565b9150509250929050565b610e2081610ca8565b82525050565b6000819050919050565b610e3981610e26565b82525050565b600073ffffffffffffffffffffffffffffffffffffffff82169050919050565b6000610e6a82610e3f565b9050919050565b610e7a81610e5f565b82525050565b6000608082019050610e956000830187610e17565b610ea26020830186610e30565b610eaf6040830185610e71565b610ebc6060830184610d75565b95945050505050565b6000602082019050610eda6000830184610e71565b92915050565b600081519050919050565b600082825260208201905092915050565b60005b83811015610f1a578082015181840152602081019050610eff565b60008484015250505050565b6000610f3182610ee0565b610f3b8185610eeb565b9350610f4b818560208601610efc565b610f5481610b6c565b840191505092915050565b600060c0820190508181036000830152610f798189610f26565b90508181036020830152610f8d8188610f26565b9050610f9c6040830187610e17565b610fa96060830186610e30565b610fb66080830185610e71565b610fc360a0830184610d75565b979650505050505050565b610fd781610e5f565b8114610fe257600080fd5b50565b600081359050610ff481610fce565b92915050565b6000602082840312156110105761100f610b58565b5b600061101e84828501610fe5565b91505092915050565b600081905092915050565b600061103d82610ee0565b6110478185611027565b9350611057818560208601610efc565b80840191505092915050565b600061106f8284611032565b915081905092915050565b7f4e487b7100000000000000000000000000000000000000000000000000000000600052602260045260246000fd5b600060028204905060018216806110c157607f821691505b6020821081036110d4576110d361107a565b5b50919050565b7f4669726d77617265207265636f7264206e6f7420666f756e6400000000000000600082015250565b6000611110601983610eeb565b915061111b826110da565b602082019050919050565b6000602082019050818103600083015261113f81611103565b9050919050565b600060608201905081810360008301526111608186610f26565b905081810360208301526111748185610f26565b90506111836040830184610d75565b949350505050565b7f56657273696f6e20616c7265616479207075626c697368656400000000000000600082015250565b60006111c1601983610eeb565b91506111cc8261118b565b602082019050919050565b600060208201905081810360008301526111f0816111b4565b9050919050565b7f496e76616c6964206669726d7761726520686173680000000000000000000000600082015250565b600061122d601583610eeb565b9150611238826111f7565b602082019050919050565b6000602082019050818103600083015261125c81611220565b9050919050565b60008190508160005260206000209050919050565b60006020601f8301049050919050565b600082821b905092915050565b6000600883026112c57fffffffffffffffffffffffffffffffffffffffffffffffffffffffffffffffff82611288565b6112cf8683611288565b95508019841693508086168417925050509392505050565b6000819050919050565b600061130c61130761130284610e26565b6112e7565b610e26565b9050919050565b6000819050919050565b611326836112f1565b61133a61133282611313565b848454611295565b825550505050565b600090565b61134f611342565b61135a81848461131d565b505050565b5b8181101561137e57611373600082611347565b600181019050611360565b5050565b601f8211156113c35761139481611263565b61139d84611278565b810160208510156113ac578190505b6113c06113b885611278565b83018261135f565b50505b505050565b600082821c905092915050565b60006113e6600019846008026113c8565b1980831691505092915050565b60006113ff83836113d5565b9150826002028217905092915050565b61141882610ee0565b67ffffffffffffffff81111561143157611430610b7d565b5b61143b82546110a9565b611446828285611382565b600060209050601f8311600181146114795760008415611467578287015190505b61147185826113f3565b8655506114d9565b601f19841661148786611263565b60005b828110156114af5784890151825560018201915060208501945060208101905061148a565b868310156114cc57848901516114c8601f8916826113d5565b8355505b6001600288020188555050505b505050505050565b600060a08201905081810360008301526114fb8188610f26565b9050818103602083015261150f8187610f26565b905061151e6040830186610e17565b61152b6060830185610e71565b6115386080830184610e30565b9695505050505050565b7f4f6e6c79206f776e65722063616e207075626c697368206669726d7761726500600082015250565b6000611578601f83610eeb565b915061158382611542565b602082019050919050565b600060208201905081810360008301526115a78161156b565b9050919050565b7f496e76616c6964206e6577206f776e6572206164647265737300000000000000600082015250565b60006115e4601983610eeb565b91506115ef826115ae565b602082019050919050565b60006020820190508181036000830152611613816115d7565b905091905056fea2646970667358221220424b39d845bec79eabba0acc4030703bdb9ad97742adb6569868b8eac24068e164736f6c63430008130033",
  "linkReferences": {},
  "deployedLinkReferences": {}
}